:020000040800F2
:1000000048F50020A10200085F600008295400089C
:100010005D600008990B0008DF8B000800000000FD
:10002000000000000000000000000000DD010008EA
:100030003D0E00080000000039020008B56C000801
:10004000BB020008BB020008BB020008BB0200089C
:10005000BB020008BB020008BB020008BB0200088C
:10006000BB020008BB020008BB020008BB0200087C
:10007000BB020008BB020008BB020008BB0200086C
:10008000BB020008BB020008BB020008BB0200085C
:10009000BB020008BB020008BB020008BB0200084C
:1000A000BB020008BB020008BB020008BB0200083C
:1000B000BB020008BB020008BB020008BB0200082C
:1000C000BB020008BB020008BB020008BB0200081C
:1000D000BB020008BB020008BB020008BB0200080C
:1000E000BB020008BB020008BB020008BB020008FC
:1000F000BB020008BB020008BB020008BB020008EC
:10010000BB020008BB020008BB020008BB020008DB
:10011000BB020008BB020008DD6D0008BB0200083E
:10012000BB020008BB020008BB020008BB020008BB
:10013000BB020008BB020008BB020008BB020008AB
:10014000BB020008BB020008BB0200086160000897
:10015000BB020008BB020008BB020008BB0200088B
:10016000BB020008BB020008BB020008BB0200087B
:10017000BB020008BB020008BB0200080000000030
:10018000BB020008BB020008BB020008BB0200085B
:10019000BB020008BB020008BB020008BB0200084B
:1001A000AD540008BB020008A90C0008BB020008FF
:1001B000BB020008BB020008BB020008BB0200082B
:1001C000BB020008BB020008DFF80CD000F0EEF81C
:1001D000004800477D8C000848F500202D4B196829
:1001E0000868B0E8F04F80F30988BFF36F8F4FF0D5
:1001F000000080F311887047000000000848006884
:10020000006880F308884FF0000080F3148862B61D
:1002100061B6BFF34F8FBFF36F8F00DF00BF00BF2A
:1002200008ED00E0DFF80C00016841F470010160A6
:10023000704700BF88ED00E0EFF30980BFF36F8FD8
:10024000144B1A681EF0100F08BF20ED108A20E929
:10025000F04F106009B44FF0500072B680F311886F
:10026000BFF34F8FBFF36F8F62B609F041FB4FF0C2
:10027000000080F3118809BC19680868B0E8F04FE5
:100280001EF0100F08BFB0EC108A80F30988BFF38E
:100290006F8F704744000020EFF305807047000027
:1002A0000648804706480047FEE7FEE7FEE7FEE710
:1002B000FEE7FEE7FEE7FEE7FEE7FEE7C16D0008AA
:1002C000C90100082DE9F05F0546002092469B46D3
:1002D00088460646814640241BE02846414647465C
:1002E000224600F053F853465A46C01A914110D3A3
:1002F00011461846224600F03AF82D1A67EB01081D
:100300004F4622460120002100F031F817EB00098A
:100310004E41201EA4F10104DFDC484631462A4646
:100320004346BDE8F09F40EA01039B0703D009E084
:1003300008C9121F08C0042AFAD203E011F8013BD1
:1003400000F8013B521EF9D27047D2B201E000F82A
:10035000012B491EFBD270470022F6E710B5134669
:100360000A4604461946FFF7F0FF204610BD202A32
:1003700004DB203A00FA02F1002070479140C2F1FC
:10038000200320FA03F3194390407047202A04DB2E
:10039000203A21FA02F00021704721FA02F3D040FE
:1003A000C2F120029140084319467047064C074DA0
:1003B00006E0E06840F0010394E807009847103435
:1003C000AC42F6D3FFF704FF48BF000868BF00083F
:1003D0004A496FF0706210B5D1F8043323F440330A
:1003E000C1F80433D1F8043344682343C1F804331B
:1003F00001684B6823F480734B60016803694C68A3
:1004000044EA03234B6001684B6823F040734B6060
:10041000016884684B6823434B6001688B6823F450
:1004200000638B600168C4688B6823438B60816ABA
:10043000D14201688A6822F070628A6001680DD03A
:10044000836A8A681A438A6001688A6822F0405287
:100450008A600168C36A8A681A4302E08A6822F0E7
:1004600040528A6001688A6822F002028A6001684C
:1004700082698B6843EA42028A6090F82010002962
:10048000016811D01E4A4B6843F400634B60016859
:100490004B6823F460434B600168446A4B6802EB8D
:1004A000443213434B6003E04A6822F400624A601E
:1004B0000168144BCA6A22F47002CA620168848B14
:1004C000CA6A03EB04531A43CA6201688A6822F4B9
:1004D00000728A60016890F830208B6843EA4222FB
:1004E0008A6001688A6822F480628A6001684069D3
:1004F0008A6842EA8020886010BD00000020014028
:1005000000E0FFFF0000F0FF1CB5044600F052F8C9
:10051000034600F03FF802460020CDE900040648FB
:10052000064C006800EB800101EBC00104EB810187
:10053000C96D04F07BFF1CBD0000002050010020AD
:100540000648C02330B408240522046061034361D7
:10055000C261C16230BC02F0E1BA0000CC000020F0
:10056000094810B50068816941F0010181610122EB
:100570000648110301F0BBFB01220548BDE810400D
:10058000082101F0B4BB000050010020002002400F
:10059000002802400548006800EB800101EBC00024
:1005A000034901EB8000006E70470000000000204E
:1005B000500100200548006800EB800101EBC000FD
:1005C000034901EB8000406E7047000000000020EE
:1005D000500100202DE9F041224C2820092140F251
:1005E0001B1604F1140840F21525352240F21D1C9B
:1005F0000B2340F2352788E8EF1000212046FFF753
:100600009FFF4FF4F07222664FF4887161660020FC
:1006100084F8340084F8350084F836006060A06007
:10062000114AE06022602061204601F0F3FE18B913
:100630000021204600F05CF80A4801F053FF012237
:100640000A48110301F053FB09480122082101F077
:100650004EFB00F00FF9074800F0ECF80020BDE871
:10066000F08100005001002000680140002002409D
:10067000002802400400002030B58DB00A46002357
:1006800004460093FFF786FFCDE90103FFF792FFD1
:10069000FF21039007208DF8303009924FF4C06598
:1006A0008DF83130CDE9043106938DF83230CDE943
:1006B0000750FFF76FFF0A90FFF77CFF0B90224671
:1006C0000948694601F07CFE074904EB44004FF0FD
:1006D000FF34E83101EB800223065460034C946040
:1006E00041F820300DB030BD500100200400002042
:1006F0004748F0B5016887B041F08061016000684B
:1007000000F08060059042481438016841F400010F
:100710000160016801F400010591016841F01001D8
:100720000160016801F010010591016841F040018C
:100730000160016801F040010591016841F4807198
:100740000160016801F480710591016841F4007154
:100750000160016801F400710591016841F4806154
:100760000160016801F480610591016841F48071C4
:100770000160016801F480710591016841F48061B4
:100780000160006802240E2500F4806005901020AE
:10079000CDE9000402A8002180E832001D48694626
:1007A00001F0B4F9E6026946092004901A48CDE93F
:1007B000006401F0ABF9194F4FF46640CDE9000435
:1007C00069463846049501F0A1F94EF6FF70694676
:1007D000CDE900041248049501F098F90495F7203A
:1007E000104D6946CDE90004284601F08FF9012437
:1007F00069463846CDE9006401F088F90820694669
:10080000CDE90004284601F081F907B0F0BD0000F1
:10081000443802400010024000180240002002400C
:10082000002402400028024001490860704700008F
:10083000000000200449054A096801EB410102EB70
:10084000810188607047000000000020380200200D
:100850000246014801F053BF5001002010B50124A9
:100860000348610301F03EFA00B10024204610BDA8
:10087000000802401B4802222DE9F04100F134013A
:10088000174E07230660042581E82C00CB60002466
:100890000A61D7014A6110238A61910244604026AF
:1008A000C0E902454A00C0E90741C0E90924103007
:1008B000002180E8C800103800F05EF809490948B6
:1008C000343103F0F1F9084D10B10120287000E037
:1008D0002C7040F2036000F009F82878BDE8F08140
:1008E000400100A0100300200C0000202DE9F84377
:1008F000204C102700254FF6FF7801260095214651
:100900008146C4E90067C4E90265A1F1500042468E
:1009100003F0FEF9012001F08DF802202146C4E920
:100920000007C4E90265A1F15000424603F0F0F966
:1009300003214246C4E9001708202146C4E9020504
:10094000A1F1500003F0E4F94FF408700090042185
:100950004246C4E90260C4E900172146A1F15000F3
:1009600003F0D6F9A4F150004946BDE8F84303F07E
:10097000BEB9000060030020F0B504464F4887B0C0
:10098000016841F00101016000684C4900F001007C
:1009900005900839086840F480000860086800F491
:1009A00080000590086840F004000860086800F0C6
:1009B00004000590086840F008000860086800F02E
:1009C00008000590086840F010000860086800F012
:1009D00010000590086840F020000860086800F0EA
:1009E00020000590086840F040000860086800F0AA
:1009F00040000590086840F0800008600868012108
:100A00000C2200F0800005900220CDE901010823AE
:100A10000093CDE903022A48694601F077F84CF2C9
:100A2000037000902748694601F070F84FF6837014
:100A300000902548694601F069F84FF63F000090A4
:100A40002248694601F062F848F2331000902048CD
:100A5000694601F05BF8282000901E48694601F0C5
:100A600055F81D494FF4007500224FF0800CEE0040
:100A70006F004A606801C1E902C5C1E90476183116
:100A8000164EC300032581E80D00C1E903254A6124
:100A90008A6141F8186D21630F488C6300F0E7FE0E
:100AA0000D4800F017FF00220F21382001F074FEDE
:100AB000382001F063FE07B0F0BD00003838024076
:100AC00000080240000C02400010024000140240E6
:100AD00000180240001C0240500200201064024036
:100AE0000146014803F086BA20070020044810B5EB
:100AF00003F092FA042801D0012010BD002010BD9F
:100B00002007002010B500F015F8012801D00220C0
:100B100010BD074803F096FA040006D104484FF4CC
:100B2000006103F00DF900B10124204610BD000062
:100B30002007002008B501208DF80000FFF78EFE89
:100B400010B900208DF800009DF8000008BD0000DD
:100B500013460A4610B500240146034803F0FEFA86
:100B600000B10124204610BD2007002002480022C9
:100B70000121406808F0ECB91400002013460A4631
:100B800010B500240146034803F084FB00B10124A2
:100B9000204610BD20070020FEE770B50546D0F8BE
:100BA0007C030426C46994F84E0003281AD0042854
:100BB00020D1217B284607F002FA01281AD1217B97
:100BC000284607F0E7F9A16A814214D0628B82427D
:100BD00011D2226A0B1AA362032184F84E1010442A
:100BE00020620EE0237B2846628B216A06F0ECFC33
:100BF00084F84E6070BD002084F84E00284606F050
:100C00004AFEC5F8E0633146D5F8D8030022BDE8B6
:100C1000704008F09DB90000F8B50546D0F87C0397
:100C20000127C46994F84D00012818D0022824D166
:100C3000617B284607F0C3F901284FF004061DD058
:100C400002281AD1314684F84D7000BFC5F8E01370
:100C50000022D5F8D803BDE8F84008F079B9228B16
:100C6000606A0097637B9042E16900D882B22846AF
:100C700006F0BAFC022084F84D00F8BD208B00215C
:100C8000626A824208D9E369121A62621844E0611A
:100C900003D084F84D7005E06162284684F84D1059
:100CA00006F0FCFD3146D1E7014800F065BC0000CC
:100CB0002C040020F0B5059C44EA034503685C6CF5
:100CC00004F040442C435C640368DA634268B2F584
:100CD000403F02D00068C160F0BD01F47F428568EA
:100CE00001F47F04224301F07F4301F47F0701F404
:100CF0007F46CCB2BDB1012D16D001F47F02C1F305
:100D0000C401D20C022D11D0032D14D0320B390D99
:100D100015011A0F45EA0123210943EA02320A4369
:100D200000688263F0BD1A432243F9E7B30A5B010E
:100D300043EAC222F3E7F40ADB0F640144EA8222A9
:100D400042EAC332EBE7000001681823CAB2103A46
:100D5000B2FBF3F2054B6FF30901032A9B5CC365F9
:100D600000D9091D8165084670470000E0BE0008F3
:100D700010B583694FF0C074826A0146002053B1F8
:100D8000B3F5005F15D072B1012A0CD0022A0AD047
:100D9000032A09D104E01AB1012A06D0022A03D19C
:100DA000C96AC90100D5012010BDC96AA142FAD0A3
:100DB00010BD002AF7D0012AF2D0022AF3D0032A6C
:100DC000F3D010BD30B50468256825F48025256072
:100DD000046863608368402B036803D099600068EF
:100DE000C26030BD9A600068C16030BD00214FEA2A
:100DF000010210B500EB8203521C0F2AC3F88413C2
:100E0000F8D300224FF400738418521C9A4284F8DD
:100E10001C11F9D301220170402341708270C0F887
:100E2000C41302768371417680F81C1380F81D2369
:100E300080F81F1380F81E13002010BD7047704704
:100E4000002200F001B800000E4B70B505465C7A38
:100E50000120002C14D15E7A03F108009C555E7AC3
:100E600003EB860675605D7A2A54587A421C5A72E2
:100E70003A232F22303008704B7020468A70CC7095
:100E800070BD000048140020F0B5D1E90125D1E97A
:100E90000343D1E905762A43D1F800C044EA0304AC
:100EA000D1E9073542EA0402496A42EA0702BCF185
:100EB000010F42EA060208D004681A432A430A4393
:100EC000E30BDB031A4302600BE0066844682B4324
:100ED00026F4F84529430B4303606FF30E042243C5
:100EE00042600020F0BD426942EA410141610020B8
:100EF000704738B591E81C00C9686FF01F051A43A8
:100F000005EB441444EA41210A43009202610020A7
:100F100038BD00002DE9F043914691E81C006FF0C8
:100F20000F05521E2E0105EB03131A430B7E06EB31
:100F300004268C8A2F034FEA054C0D8A32434FF06A
:100F40007F4808EB0366CB68B9F1010F07EB054555
:100F50000CEB04540CD081683F1107EB03331A43A8
:100F60002A432243324301F070410A43826011E078
:100F70008168DFF828C0C7681B03A3F580532343AB
:100F80002A4301EA0C0132430B43836007F07044AB
:100F90002243C2600020BDE8F0830000FF0F0FFF76
:100FA00030B4A12505742124447400220723C38290
:100FB000428282821A4630BC06F096BCF8B5002503
:100FC000009590F83C20012A1DD0012280F83C2099
:100FD000604C0723D6070A68092A22D9B24220D0DA
:100FE00007680A3A02EB420CFA6803FA0CF39A43D8
:100FF000FA600A68A24208D102680B7AD76847EA09
:101000000363D36022E00220F8BD07680A3A8B68C8
:1010100002EB4202D7F80CC0934043EA0C03FB609A
:1010200014E0076802EB4202D7F810C093402CEAA4
:10103000030CC7F810C003680F788A68D3F810C093
:1010400007EB4707BA4042EA0C021A614A681F23BD
:10105000072A16D20768521E02EB820C7A6B03FA3B
:101060000CF39A437A6302680F790B887F1ED2F8DB
:1010700034C09BB207EB8707BB4043EA0C035363C2
:101080002DE007680D2A15D2D21F02EB820C3A6BB5
:1010900003FA0CF39A433A6302680F790B88FF1F37
:1010A000D2F830C09BB207EB8707BB4043EA0C0382
:1010B000136314E00D3A02EB820CFA6A03FA0CF3A4
:1010C0009A43FA6202680F790B880D3FD2F82CC060
:1010D0009BB207EB8707BB4043EA0C03D3621E4A6F
:1010E0000368934208D10B68B34205D1D2F80433A8
:1010F00023F44003C2F804330368934208D10B6819
:10110000122B05D1D2F8043343F48003C2F8043320
:10111000036893421AD10B68A34201D0112B15D159
:10112000D2F8043343F40003C2F804330968A1423F
:101130000CD10A490A4A0968B1FBF2F101EB8101BD
:10114000490000E0491E00910029FBD180F83C5085
:101150000020F8BD120000100020014040000020D7
:1011600040420F0070B504004FF0000503D0206C22
:10117000002610B107E0012070BD204600F01CF8E9
:10118000666484F83C60206CC00610D4206C20F4A7
:10119000885040F0020020642046FFF719F9666489
:1011A000206C20F0020040F00100206400E00125E6
:1011B00084F83C60284670BD30B587B004461421E1
:1011C0006846FFF7C9F81A49206888422DD11948A6
:1011D000016841F480610160006800F4806005905E
:1011E00014481438016841F020010160016801F0E1
:1011F00020010591016841F00101016000680325AB
:101200000024694600F0010005904FF4F860029454
:10121000CDE90005084800F079FC01206946CDE9D8
:1012200000050648029400F071FC07B030BD0000D4
:1012300000220140443802400014024000000240F5
:10124000F0B50126044600201E2301E05B1E05D3F5
:1012500003F01F0706FA07F50D42F7D072B1082A0E
:101260000AD0102A05D0182A01D1072B06D3012055
:10127000F0BD082BFBD201E0102BF8D22368596196
:1012800021688B6823F0180313438B60F0BD0000C6
:1012900010B5040010D0607F20B9002020772046D0
:1012A00000F032F821790220607739B1D4E90212D6
:1012B0002046FFF7C5FF48B1012010BD2168114845
:1012C00048612068816821F0180181606079A0B1CF
:1012D000216820690861012220686369816821F022
:1012E0006001194381602068A369816821F0800151
:1012F000194381606277002010BD21684FF0FF30F4
:10130000E8E70000B71DC10408B500680649884237
:1013100008D10648016841F480510160006800F47A
:101320008050009008BD000000300240303802407C
:101330002DE9F041040003D094F8350018B105E020
:101340000120BDE8F081204600F040F8A1690220AC
:101350004FF0000E84F8350009B1C4F824E020688D
:10136000194A016811400160D4E90452E168D4E9E6
:10137000010C29431043A269084354F8201B40EA9A
:101380000C001043B4E8E8100A68184328433043BF
:10139000384340EA0C001043086054F8300C343CE9
:1013A000102805D12268E17FE06961F31F60906138
:1013B00020680121C26842F01E02C260C4F84CE0FD
:1013C00084F835100020BCE707F0E0FF70B586B068
:1013D000044614216846FEF7BFFF3749206888425B
:1013E00068D13648016841F001010160006800F0F1
:1013F000010005903148001F016841F010010160B3
:10140000016801F010010591016841F008010160D7
:10141000016801F008010591016841F04001016097
:10142000016801F040010591016841F0800101600F
:10143000016801F080010591016841F0010101603E
:10144000006800240D26694600F001000590602028
:10145000009002251A48CDE90154CDE9034600F079
:1014600055FB08200090CDE9015416486946CDE9A6
:10147000034600F04BFB28020090CDE901541248CE
:101480006946CDE9034600F041FB4FF4BC400090B3
:10149000CDE901540D486946CDE9034600F036FB1D
:1014A00050200090CDE9015409486946CDE9034632
:1014B00000F02CFB06B070BD00000550343802402F
:1014C00000100240000C024000180240001C0240C4
:1014D000000002407047000070B590F83820012AE3
:1014E00023D0244C012680F83860022300EB01123F
:1014F00080F83930158CD36918320A2B43EA054538
:1015000015D0092B13D0137B45EA0363056899B105
:10151000E969A1431943E961016813680B615168E6
:101520000A291BD0092919D01DE0022070BDD368FB
:1015300003F07F432B43E9E7696AA14319436962DA
:10154000016813688B6151680A2901D009290AD101
:10155000D168026821F07F41916204E0D16802689D
:1015600021F07F411162002180F8396080F8381045
:10157000084670BD0F0003FF2DE9F04704460068E0
:1015800000274FF004084FF0010946680568F1078D
:1015900014D0E90512D5036823F480730360E06B6F
:1015A00040F00100E0632068C0F8089084F83980BA
:1015B00084F83870616909B120468847B00615D5AE
:1015C000A80413D520682022036823F40053036085
:1015D00020688260E06B40F00200E06384F83980AC
:1015E00084F83870616909B120468847300715D5FD
:1015F000280513D520680822036823F400630360DC
:1016000020688260E06B40F00400E06384F8398079
:1016100084F83870616909B12046884770070CD595
:1016200068050AD52068026822F48062026020689A
:10163000C0F80880204600F05AF8B00713D5A80576
:1016400011D520680222036823F400730360206828
:101650008260E06BE06384F8399084F83870216927
:1016600009B120468847F00612D5E80410D5206855
:10167000016821F480510160226810219160E16BC2
:10168000E16384F83990204684F83870FFF722FF30
:10169000BDE8F08770B5040004D094F83900002547
:1016A00010B106E0012070BD204684F8385000F0EB
:1016B0001FF8022084F83900D4E9000301210268F0
:1016C00022F440321A4302602068A368426B22F081
:1016D00007021A4342632068E368026C6FF30D024D
:1016E0001A430264E56384F83910002070BD704726
:1016F00008B500680B49884212D10B48016841F4D3
:101700000001016000680022052100F40000009043
:101710005A2001F041F8BDE808405A2001F02EB8E7
:1017200008BD000000B00240303802402DE9F84307
:101730000026044604270D4600964FF00308006873
:101740000068C00726D000F0D7FA81461EE0406846
:10175000009010F0210F10D00098800603D5E06BA8
:1017600040F00200E0630098C00703D0E06B40F057
:101770000100E0632168212035E0681C06D000F0FC
:10178000BBFAA0EB0900A8424DD8A5B32068416878
:101790008907DCD52068C169406A01F0200100F0AA
:1017A0002000084335D000F0A7FA81462DE04068BC
:1017B000009010F0290F1FD00098000703D5E06BB0
:1017C00040F00400E0630098800603D5E06B40F031
:1017D0000200E0630098C00703D0E06B40F0010016
:1017E000E06321682920886084F83970012084F83A
:1017F0003860BDE8F88316E0681C06D000F07CFA7B
:10180000A0EB0900A8420ED86DB120684168C90656
:10181000CDD5226812210120916084F83900002082
:1018200084F83860E5E7E16B84F8386041F0200126
:10183000E16384F839800320DBE7F8B504460698B5
:1018400094F83850012D10D0012684F83860022514
:1018500084F8395000902046FFF72CFA2068016880
:1018600041F0010101600020F8BD0220F8BD70B513
:1018700004002BD094F83500022826D020680025DB
:101880002122016821F001010160206805602068C3
:101890004560206885602068C56020680561206813
:1018A00042612046FFF750FA94F85C203F219140B6
:1018B0008160E56325646564A564E5642565656507
:1018C00084F83550002084F8345070BD012070BD7C
:1018D000406D70472DE9F047044600F00DFA0546CB
:1018E00064B14FF0000984F83490022184F8351077
:1018F0002068016821F0010101600EE00120BDE8CF
:10190000F08700BF00F0F8F9401B052805D9202119
:101910006165032084F83500F1E720680068C0079E
:10192000F0D1D4E90020D4E90251D4E9043C2843A1
:1019300004F1180519430843116895E8E00140EAED
:101940000C001C4B2843194040EA060040EA0700FF
:10195000B8F1040F40EA010003D1D4E90B13194395
:101960000843106020680126656A4069042D20F054
:10197000070045EA00050CD1D4E90A01054341B14D
:101980002046FFF7F5F920B14020606584F8356006
:10199000B4E7206845612046FFF7D6F994F85C303B
:1019A0003F229A408260C4F8549084F83560002049
:1019B000A5E700003F8010F02DE9F041044690F8C3
:1019C000340000250128A66D0ED094F835C00127FB
:1019D000002084F83470BCF1010F07D0022584F890
:1019E00034002846BDE8F0810220FBE7022784F896
:1019F000357060652046FFF7E5F994F85C103F20EC
:101A00008840B0602068016841F0160101602068DC
:101A1000416941F080014161206C20B1206801687A
:101A200041F0080101602068016841F00101016096
:101A3000D7E7000070B5044600F05EF90546601C6B
:101A400002D004480078044400F056F9401BA0423C
:101A5000FAD370BD34000020F0B587B01421684679
:101A6000FEF77AFC2148016800293CD10121016080
:101A70001F48016841F0010101600068022400254F
:101A8000694600F00100059003264FF683700C278D
:101A90008DE8F100174800F039F848F23310694634
:101AA0008DE8F100144800F031F84CF203706946FB
:101AB0008DE8F100114800F029F84FF63F00694623
:101AC0008DE8F1000E4800F021F8282069468DE8E5
:101AD000F1000C4800F01AF8082069468DE8F10082
:101AE000094800F013F807B0F0BD00002400002002
:101AF000383802400010024000180240000C02403A
:101B000000140240001C0240000802402DE9F84F7A
:101B100000224FF001094FF0030A4FF00F0E00BFF3
:101B20000B6809FA02F42340A34270D14D68012DDD
:101B300005D0022D03D0112D01D0122D11D18568B1
:101B40005700CE680AFA07FC25EA0C05BE402E4372
:101B5000866045680E79A543C6F3001696402E436D
:101B60004660C56856008F680AFA06F4A543B74078
:101B70002F43C7604D68022D01D0122D12D1D50818
:101B80000F694FEA427C00EB8505AB462D6A4FEAB0
:101B9000DC6C0EFA0CF807FA0CF725EA08052F435F
:101BA000CBF820700D79076805F00305A743B54011
:101BB0003D4305604C68E40074D53D4C256845F410
:101BC00080452560246822F00307960704F48044CA
:101BD0000094384C360F2744D7F80848DFF8D8C0AF
:101BE0000EFA06F5604524EA050401D100252EE031
:101BF000324DA84201D1012529E0314DA84201D141
:101C0000022524E02F4DA84202D103251FE049E020
:101C10002D4DA84201D1042519E02C4DA84201D137
:101C2000052514E02A4DA84201D106250FE0294DD3
:101C3000A84201D107250AE0274DA84201D1082575
:101C400005E0264DA84201D1092500E00A25B5404E
:101C5000234E2543C7F808584D683468ED0324EA3D
:101C6000030400D51C431E4D34602D1D4E682C68A6
:101C7000B60324EA030400D51C43194E2C60083631
:101C80004D683468ED0224EA030400D51C43144D6A
:101C900034600C354E682C68B60224EA030400D583
:101CA0001C432C60521C102AFFF43AAFBDE8F88F99
:101CB000443802400030014000000240000402406D
:101CC00000080240000C02400010024000140240D4
:101CD00000180240001C0240002002400024024084
:101CE000003C01400069084000D0012070470AB163
:101CF000816170470904FBE7014880687047000074
:101D000034000020D0F8C00206F007B9D0F8C002B5
:101D100006F014B9006806F0B7BC006806F0B8BC5D
:101D200001EB810100EBC10090F85C00704701EB12
:101D3000810100EBC100C06C704710B5044690F8FB
:101D4000B802012809D0012084F8B802206806F002
:101D5000AAFC002084F8B80210BD022010BD2DE9B5
:101D6000FE4F04469A46DDE90D6094F8B832DDF87E
:101D70003090012B1CD001EB81034FF0010B84F854
:101D8000B8B2002504EBC3035FEA026802F07F0CDF
:101D900083F83D5083F838A0A3F8400083F8391049
:101DA00083F83F6083F83AC005D583F83BB004E080
:101DB0000220BDE8FE8F83F83B5083F83C905346E9
:101DC000CDF80090CDE90160206806F0CDFC84F8E4
:101DD000B852EEE7D0F8C00206F02CB92DE9F003B6
:101DE00001EB81044FF0020600EBC404DDE9087545
:101DF000DDE906C984F83B20BCF1000F84F83F30D0
:101E00000CD084F8426000BF4FF000056BB1012B8D
:101E10002ED0022B12D0032B16D10FE084F83D50A8
:101E20004FF0030884F84280EEE7BCF1010F0BD1BC
:101E300052B9D7B9012284F8512003E0AAB194F82D
:101E40005020AAB184F84260C4E9119784F85C502C
:101E5000E56484F8391004F1380184F85D50027C9F
:101E60000068BDE8F00306F001BD94F85120E8E7F2
:101E700084F84250E8E700002DE9F041044600688C
:101E8000064606F00CFC01287ED1206806F014FE00
:101E9000002879D0206806F00FFE800203D5216863
:101EA0004FF400104861206806F006FEC00203D51A
:101EB00021684FF480104861206806F0FDFD400164
:101EC00003D521684FF080604861206806F0F4FD7A
:101ED000800702D5216802204861206806F0ECFDE9
:101EE00080000ED521684FF000504861D6F84004BC
:101EF000C00706D12046FFF709FF2068012106F040
:101F0000BFFD206806F0D8FDC00102D5204603F0D1
:101F100006FA206806F0D0FD000705D5204600F03F
:101F2000CAF8216808204861206806F0C5FD8001D4
:101F300023D5206806F096FC002507464FF00108DF
:101F400014E000BF05F00F0108FA01F038420CD090
:101F500006EB4510D0F80005E9B20004204602D592
:101F600002F080FF01E003F0BBF86D1CA068A842FE
:101F7000E8D821684FF000704861206806F09CFDA9
:101F8000C043C0060ED400E00CE02068816921F057
:101F900010018161204603F00DFA2068816941F04B
:101FA00010018161BDE8F08170B504008AB005D0F0
:101FB00094F8B9020026256818B107E001200AB09C
:101FC00070BD204684F8B86200F028F8032084F839
:101FD000B902E86BC00500D42661206806F0FEFA5D
:101FE00004F11001684628220D46FEF79CF994E89A
:101FF0000F0006F0A1FA2068012106F088FD2822D2
:1020000029466846FEF78FF994E80F0006F0D6FCE3
:10201000012084F8B9020020D1E7000010B586B095
:10202000044614216846FEF797F92068B0F1A04FE6
:1020300030D11948016841F00101016000680221B6
:10204000002200F00100059003230A244FF4E05021
:102050008DE81F0011486946FFF758FD0E48001D26
:10206000016841F080010160006800F08000059087
:1020700009481430016841F4804101600068002281
:10208000052100F480400590432000F085FB4320AB
:1020900000F074FB06B010BD303802400000024072
:1020A000D0F8C00205F0DFBFD0F8C00205F0DFBFF6
:1020B000006806F013BDD0F8C00205F084BF10B56B
:1020C000044690F8B80201280DD0012084F8B80227
:1020D000206806F0B1FA2068012106F097FA002086
:1020E00084F8B80210BD022010BD10B5044690F867
:1020F000B802012809D0012084F8B802206806F04F
:102100001DFD002084F8B80210BD022010BD30B5BE
:1021100090F84120202A24D190F84020012A20D094
:10212000012380F84030242280F84120202300241D
:102130000268156825F0010515600268156825F428
:1021400080551560026815680D43156001680A68BE
:1021500042F001020A6080F8413080F840400020DF
:1021600030BD022030BD30B590F84120202A22D168
:1021700090F84020012A1ED0012380F8403024220C
:1021800080F84120202400250268136823F0010311
:1021900013600268136823F4706343EA012111603D
:1021A00001680A6842F001020A6080F8414080F844
:1021B0004050002030BD022030BD000070B504004A
:1021C00004D094F84100002510B106E0012070BD54
:1021D000204684F8405000F04DF8242084F8410057
:1021E0002068016821F001010160D4E9001020F0AD
:1021F000706008612068816821F400418160E068B6
:1022000021680128A06806D040F404408860E06896
:10221000022803D006E040F40040F7E721684FF4BD
:102220000060486020212068114A436813434360DE
:102230002068C26822F40042C26054F8106B0DCCD2
:10224000104340EA0320F06054F81C3CD4E900023B
:102250001043186054F81C0D026842F0010202603D
:10226000656484F84110256384F84250002070BDF5
:102270000080000270B586B0044614216846FEF75F
:102280006BF825681220224C0122224E042320499B
:102290001034B5421BD10D6845F002050D60096888
:1022A0000025049301F0020105914FF44071CDE93E
:1022B000001019486946CDE90225FFF727FC206880
:1022C00040F400102060206800F400101DE0134E60
:1022D000B5421BD10D6845F080050D6009680325E6
:1022E000049301F0800105914FF4C071CDE9001015
:1022F0000B486946CDE90225FFF708FC206840F449
:1023000000002060206800F40000059006B070BD59
:10231000303802400054004000040240005C00409D
:10232000001C0240024881680278114481607047B5
:1023300034000020032010B500F04EFA002000F019
:1023400005F800F0FFF9002010BD000010B50022D4
:102350000146362088B000F01FFA362000F00EFA51
:102360001348016841F010010160006805A900F000
:1023700010000690684600F0E7FE00F005FF0D49EA
:10238000400000220C4CB0FBF1F10C4840F2E73366
:102390000460C0E90332491EC0E9011202F0CEF91F
:1023A00010B1012008B010BD044802F027FAF9E787
:1023B0004038024040420F00001000400814002046
:1023C0002DE9F041044690F8A00016460F4601287A
:1023D0001DD0012584F8A050022084F8A10006EB4E
:1023E000860000EBC600342204EB80003830FDF795
:1023F0009AFF32463946204603F05EF821680020F5
:102400004D6284F8A15084F8A000BDE8F08102205C
:10241000FBE7704790F8A10070472DE9F0410446B2
:10242000006800274FF00408856B466B690715D5D7
:10243000710713D5426B22F0040242632068C0F892
:102440003C80D4F8A40040F00100C4F8A40084F853
:10245000A180204684F8A070FFF7DBFFA80716D5FF
:10246000B00714D520680222436B23F002034363B4
:102470002068C263D4F8A40040F00200C4F8A400AD
:1024800084F8A180204684F8A070FFF7C2FF05EA17
:1024900006004FF00108C0070ED021684A6B22F0F9
:1024A00001024A632168C1F83C8084F8A18020467B
:1024B00084F8A07000F092F8280710D530070ED5E8
:1024C00020680822436B23F0080343632068C2633B
:1024D00084F8A180204684F8A07000F00FF9BDE8D0
:1024E000F08100002DE9F041040004D094F8A1002F
:1024F000002518B107E00120BDE8F081204684F8EE
:10250000A05000F06DF83448022184F8A110012297
:1025100002CC8B6923F070438B6194E84A00194325
:10252000E3681E4354F8043D31439E693143996189
:1025300021688B6803408B602168A68AA7698B6835
:102540003B4343EA06438B602168CB680340CB6082
:102550002168A38B276ACE683E4346EA0346CE60D5
:1025600021680B6903400B612368A68CA76A19696F
:10257000394341EA0641196121684B6903404B61C7
:102580002068A38D266B4169314341EA03414161D3
:10259000236894F8351094F83600DE6A000406F0DB
:1025A0007F46DE62236840EA012094F83460D96AED
:1025B00031430143D9622068416B41F00601416318
:1025C0002068816941F001018161C4F8A45084F858
:1025D000A120002090E7000000F800F07047000004
:1025E00070B586B0044614216846FDF7B5FE3C4937
:1025F0002068884272D13B48016841F080610160E7
:10260000006800F08060059036481438016841F099
:1026100010010160016801F010010591016841F4A9
:1026200000710160016801F400710591016841F4D5
:1026300080610160016801F480610591016841F0E9
:1026400040010160016801F040010591016841F419
:1026500080710160006800240E26694600F48070D5
:1026600005901020009002251F48CDE90154CDE9C6
:102670000346FFF74BFA4EF6FF700090CDE9015488
:102680001A486946CDE90346FFF740FAF720009063
:10269000CDE9015416486946CDE90346FFF736FAFD
:1026A0000921E8020090CDE90154CDE90341114828
:1026B0006946FFF72BFA4FF446400090CDE90154EC
:1026C0000D486946CDE90346FFF720FA00220521AF
:1026D000582000F061F8582000F050F806B070BDA6
:1026E00000680140443802400010024000240240CB
:1026F000002802400018024000200240704770B5D8
:10270000044690F8A0000B46012818D002EB820086
:1027100000EBC201012584F8A050022084F8A1003A
:1027200004EB81012046CB64383102F0C5FE2168FC
:1027300000204D6284F8A15084F8A00070BD0220F2
:1027400070BD00000C4882B0016841F0805101600A
:10275000006800F0805000900748001D016841F4B7
:1027600080410160006800220F2100F48040009049
:10277000901E02B000F010B840380240002809DB7B
:10278000410900F01F028900012001F1E021904081
:10279000C1F80001704700000E4BF0B41B680D46F5
:1027A000C3F30223C3F10706042E00D90426191D22
:1027B000072901D2002300E0DB1E012404FA06F100
:1027C0009C40491E2940641E994014402143F0BC9E
:1027D00006F006BA0CED00E0064900F0070210B55D
:1027E0004FF6FF040868044B204040EA02201843DB
:1027F000086010BD0CED00E00000FA051848F8B5BF
:10280000016841F0805101600068164C00F0805072
:102810000090206840F480302060FFF76DFA4FF49C
:102820007A76054605E000BFFFF766FA401BB04226
:102830000FD86068C003F7D5206840F400302060EE
:10284000FFF75AFA054606E0FFF756FA401BB0427A
:1028500001D90320F8BD60688003F5D50020F8BDDC
:1028600040380240007000400248016841F4807125
:102870000160704700700040F8B50446FFF73CFA6D
:10288000064624B194F84100002510B109E001206A
:10289000F8BD84F84050204600F046F841F28830F8
:1028A000A06420686FF0FF02A168036802EB0122B8
:1028B00023F4F85111430160A06C0022202133461B
:1028C0000090204603F0D2FB30BBD4E907672268B2
:1028D00094F804C0E16813683143114E47EA0C6C68
:1028E000104F41EA0C0133404FF0010E19431160C3
:1028F0002168D4E90526B4F810C04B6832433B4048
:1029000043EA0C431A434A6021680A6842F0010214
:102910000A60656484F841E084F84050F8BD000026
:102920002FFFFF00FEF8E0FF2DE9F04387B00446DB
:1029300014216846FDF710FD2B49206888424FD1CD
:102940002A48016841F002010160006800F00200BD
:10295000059026480838016841F0100101600168BF
:1029600001F010010591016841F002010160016868
:1029700001F002010591016841F008010160006861
:10298000092701AA4FF0040800F00800CDF80080E4
:10299000022469460025CDE904700326144882E824
:1029A0007000FFF7B3F80A21DFF848904020CDE926
:1029B00003618DE8310069464846FFF7A7F801AA90
:1029C000CDF800806946484682E8F000FFF79EF89F
:1029D0004FF4605069468DE8F1000748FFF796F81C
:1029E00007B0BDE8F0830000001000A038380240B6
:1029F0000010024000040240000C0240F0B5444BBD
:102A0000B0F5002F404D4FF4801E404EA3F104045A
:102A1000404F03F10402404984464FF000000DD0BE
:102A2000F44516D1D2F800C01CF4400C3CD0BCF5E3
:102A3000800F4ED0BCF5000F0BD109E0D2F800C0DA
:102A40001CF4401C06D0F44519D0BCF5001F00D181
:102A50003846F0BD08684002086800F03F0002D424
:102A6000B5FBF0F001E0B6FBF0F019681B681468E4
:102A7000C1F30362C3F38813C4F304213DE0086883
:102A80004002086800F03F0002D4B5FBF0F001E01E
:102A9000B6FBF0F0216823681468C1F3036204F008
:102AA0001F01C3F3881328E008684002086800F09B
:102AB0003F0002D4B5FBF0F001E0B6FBF0F01C687B
:102AC0001B681168C4F30362C3F38813C1F30421C4
:102AD00013E008684002086800F03F0002D4B5FB2C
:102AE000F0F001E0B6FBF0F0256823681168C5F34B
:102AF000036201F01F01C3F388134343491CB3FB76
:102B0000F2F0B0FBF1F0F0BD0024F40040787D015C
:102B1000883802400080BB00043802402DE9F84F9D
:102B200004460078DFF824944FF000063746C007CB
:102B30000ED0D9F8001021F40001C9F80010D9F81E
:102B40000010626B1143C9F80010606B00B90126D8
:102B5000FE4D2068843500030ED5E16B286820F413
:102B6000401008432860E06BB0F5801F01D010B121
:102B700002E0012600E0012720684FF4800BC0022C
:102B80000CD5216C286820F4400008432860206C94
:102B9000584501D1012601E000B901272068C10193
:102BA00000D50126800666D5E8483830016841F036
:102BB000805101600068DFF898A300F08050009019
:102BC000DAF8001041F48071CAF80010FFF794F8A9
:102BD000804605E0FFF790F8A0EB080064287DD858
:102BE000DAF80000C005F5D5DFF8608308F1680861
:102BF000D8F8000010F440702AD0218E01F4407102
:102C0000814225D0D8F80010D8F8002021F4407176
:102C100042F48032C8F80020D8F8002022F4803234
:102C2000C8F80020C8F80010D8F80000C0070FD07E
:102C3000FFF762F8824607E0FFF75EF8A0EB0A01B3
:102C400041F288308142CAD8D8F800008007F3D515
:102C5000206BC0F3012103297ED0D9F8001021F4A4
:102C6000F811C9F80010228ED8F80010C2F30B0238
:102C70001143C8F800102078C00607D5286820F056
:102C8000807028602868A16B084328602188AF48BD
:102C90008830490405D5626E016821F44031114342
:102CA00001602188090405D5A26E016821F4402144
:102CB000114301602168C90305D5E26E016821F462
:102CC0004011114301602168890305D5226F016815
:102CD00021F4400111430160217800E018E1490628
:102CE00005D5626C016821F0030111430160217870
:102CF000090605D5A26C016821F00C0111430160A1
:102D00002188C90505D5E26C016821F03001114325
:102D100001602188890505D5226D016821F0C00177
:102D2000114301602188490505D5626D016821F4D0
:102D30004071114301602188090505D5A26D016824
:102D400021F44061114301602188C90407D5E26D77
:102D5000016821F4405100E041E011430160218805
:102D6000890405D5226E016821F4404111430160B8
:102D70002168490205D5A26F016821F080611143E5
:102D8000016021684FF0006A890209D5E26F01688D
:102D900021F0006111430160E16F514500D101272D
:102DA00021680A0700D50127490305D5626F01682C
:102DB00021F04071114301602168090206D5D4F861
:102DC0008020016821F0805111430160DFF8849177
:102DD000012E0ED02068B0F1007F0AD08FE05E4A4D
:102DE000D9F80030104023F4F8120243C9F800204B
:102DF00039E7D9F800004E4620F08060C9F800009D
:102E0000FEF77AFF804605E0FEF776FFA0EB0800AC
:102E100064287DD830680001F6D421784B487C3096
:102E2000C90712D0616B81B9237A62680168D0F852
:102E300000C09201C1F3014142EA0142CCF30361B7
:102E400042EA016141EA0371016021680A0303D586
:102E5000E26BB2F5801F04D0C9021AD5216C594526
:102E600017D16368016894F80CC002689B01C1F334
:102E7000014143EA0141C2F3027241EA0C6141EAB5
:102E8000027101602968626A21F01F01521E11431C
:102E900029602168C90110D5238A62680168D0F8C9
:102EA00000C09201C1F3036142EA034242EA0162B7
:102EB000CCF3027142EA01710160216889010CD5ED
:102EC0006168228A237B94F808C0890141EA0241A3
:102ED00041EA036141EA0C7101603168B04641F09A
:102EE00080613160FEF708FF064604E0FEF704FF4C
:102EF000801B64280CD8D8F800000001F6D56FB309
:102F0000D9F800004E4620F08050C9F8000000E0DB
:102F100079E0FEF7F1FE074605E000BFFEF7ECFEA4
:102F2000C01B64286FD83068C0438000F6D50748BE
:102F3000216880300A0301D5E26B1AB1C90225D598
:102F4000216C19BB63690168277E08E008380240DC
:102F50000070004000380240FFFCFF0F5AE002689A
:102F6000C1F301419B0143EA0143C2F3027143EA09
:102F7000076242EA0171016029686FF0FF03A26AEB
:102F800021F4F85103EB02221143296021688902E0
:102F900012D5E16F51450FD1238C62690168076832
:102FA0009201C1F3036142EA034242EA0162C7F3BC
:102FB000027142EA017101602178090716D5616941
:102FC0000268D0F800C08B01277FC2F30362CCF304
:102FD000014143EA014141EA026141EA07710160AE
:102FE0002868E16A20F4403008432860306840F0E7
:102FF00080503060FEF780FE044607E0FEF77CFE5E
:10300000001B642802D90320BDE8F88F3068C04354
:103010008000F3D40020F7E72DE9F04705000F46C4
:1030200063D0444E306800F00F00B84209D23068D7
:1030300020F00F0038433060306800F00F00B842D5
:1030400053D128683C4C810712D5400703D520682E
:1030500040F4E05020602878000703D5206840F451
:1030600060402060A968206820F0F00008432060DC
:103070002878C0072AD0304968680839012810D05C
:103080000968022810D0890700292EDA216821F06A
:10309000030101432160FEF72FFE804641F288398B
:1030A0000DE009688903EFE78901EDE7FEF724FEEB
:1030B000A0EB0801494502D90320BDE8F087686804
:1030C000216801F00C01B1EB800FEFD1306800F006
:1030D0000F00B8420BD9306820F00F003843306041
:1030E000306800F00F00B84201D00120E5E72878F1
:1030F000400705D5E968206820F4E05008432060C7
:103100002878000706D52869216821F4604141EA42
:10311000C000206000F058F82168084AC1F303118C
:10312000515CC8400649086006480068FFF70EF980
:103130000020C2E7003C024008380240E8BE000818
:1031400040000020380000200D4A0F2330B50360F6
:103150004FF4E0540B4B156805F003054560156806
:1031600005F0F0058560156805F4E055C560126846
:1031700004EAD2020261186800F00F00086030BD56
:1031800008380240003C02400449054809680068CC
:10319000044AC1F38221515CC8407047083802409C
:1031A00040000020F8BE000804490548096800688E
:1031B000044AC1F34231515CC840704708380240AC
:1031C00040000020F8BE0008154910B515480968F0
:1031D00011F00C0213D01449042A0FD0082A0ED182
:1031E0000F4C241F2268236802F03F025B0207D5C0
:1031F0002068C0F38810A0FB010106E0084610BD5E
:103200002168C1F38811A1FB00010023FDF75AF8E2
:103210002168C1F30141491C4900B0FBF1F010BD28
:10322000083802400024F40040787D012DE9F84F71
:1032300004004FF000076ED02078DFF868A3AAF1F1
:103240000408C007A8F104054CD0DAF80010504675
:10325000C1F38101012908D00068C0F38100022870
:103260000AD1D8F80000400206D52868800339D575
:1032700060680028DFD035E06068B0F5803F0BD093
:1032800010B1B0F5A02F11D0286820F4803028604C
:10329000286820F4802002E0286840F4803028600C
:1032A000606890B1FEF728FD06460AE0286840F401
:1032B00080202860F0E700BFFEF71EFD801B642819
:1032C00072D828688003F7D50CE0FEF715FD064696
:1032D00005E000BFFEF710FD801B6428F0D82868C9
:1032E0008003F7D42078800742D5DAF800105046E2
:1032F00011F00C0F08D00068C0F3810002280BD138
:10330000D8F80000400207D42868800718D5E06884
:10331000012800D114E041E1E0680028286817D0B6
:1033200040F001002860FEF7E7FC064605E000BF1C
:10333000FEF7E2FC801B0228C2D828688007F7D578
:103340002069296821F0F80141EAC00028600FE0F7
:1033500020F001002860FEF7CFFC064605E000BF24
:10336000FEF7CAFC801B02281ED828688007F7D405
:103370002078000729D58B4861696C300029814687
:10338000016812D041F001010160FEF7B5FC06466C
:1033900005E000BFFEF7B0FC801B022804D8D9F876
:1033A00000008007F6D510E089E021F001010160FE
:1033B000FEF7A2FC064604E0FEF79EFC801B0228F6
:1033C0007DD8D9F800008007F6D4207840076BD567
:1033D000DFF8D09109F13809D9F80000C0000BD40A
:1033E000D9F8001041F08051C9F80010D9F8000058
:1033F000012700F0805000906B480168C90512D485
:103400000168834641F480710160FEF775FC064651
:1034100005E000BFFEF770FC801B64284FD8DBF886
:103420000000C005F6D55F4EA068683601280AD0B6
:1034300008B1052811D0306820F0010030603068F4
:1034400020F0040002E0306840F001003060A06825
:10345000A0B1FEF751FC83460CE0306840F0040058
:103460003060F0E7FEF748FCA0EB0B0141F288303A
:10347000814266D830688007F4D50EE0FEF73CFC48
:10348000834607E0FEF738FCA0EB0B0141F28830E1
:10349000814256D830688007F4D42FB1D9F8001093
:1034A00021F08051C9F80010A069C8B3DAF8001003
:1034B000C1F3810102294BD00228286800E040E0D6
:1034C00020F08070286003D0FEF716FC04463BE035
:1034D000FEF712FC064604E0FEF70EFC801B0228F5
:1034E0002FD828688001F7D4D4E90962D4E907010C
:1034F0002E4B570894F82C20084303EB074343EA6C
:103500008611084340EA026040F00050C8F800000D
:10351000286840F080702860FEF7EEFB044606E065
:103520003EE000BFFEF7E8FB001B022809D8286830
:103530008001F7D534E000BFFEF7DEFB001B022858
:1035400002D90320BDE8F88F28688001F4D427E071
:103550000128D8F8000021D0E16900F480028A42F5
:103560001CD1216A00F03F028A4217D1626A47F6F5
:10357000C0710140B1EB821F10D1A16A4FF0FF3240
:1035800000F4403302EB5101B3EB014F06D194F844
:103590002C1000F07060B0EB016F01D00120D1E77A
:1035A0000020CFE708380240007000400000FFFF15
:1035B000F0B5037F012B26D0012404770223437743
:1035C0000568CA26AB686E62532506687562056891
:1035D000EE6C26F00606EE640568EE6C40F6080711
:1035E0001643EE64BB430B4301688B6001688A6835
:1035F00042F400628A600268FF2151620021447730
:1036000001770846F0BD0220F0BD00002DE9F04131
:10361000040002D0607F18B107E00120BDE8F0810E
:1036200000202077204600F041F802206077CA2170
:1036300022685320516221684862204602F046FD0C
:10364000002820684FF0FF0103D004224162627716
:10365000E3E7154D012382682A408260D4E9002601
:10366000D4E9045790683D43304328439060226872
:10367000E068106120682289056945EA024202611A
:103680002068C26822F08002C2602068C26C22F00A
:103690000802C2642068A569C26C2A43C26420681B
:1036A000416263770020B9E7BFFF8FFF00680449DC
:1036B000884204D10348016841F400410160704729
:1036C00000280040703802402DE9F05F0446007F7A
:1036D0000B46012843D002210120207761774FF06B
:1036E0000006206880684FEA4060BAB3002800DB1B
:1036F0001E7358781A781F7B9978050293F824C0B6
:1037000041EA0241186A45EA07459A69294341EAB4
:103710000C65054315432268D3F81CC0CA215F68B5
:1037200053204FF0FF0851624FF47A7A216847EA3C
:103730000C074FF0030B4862986AB0F5807F206851
:1037400081682DD021F4007181602068816821F4A6
:1037500000518160FEF7D0FA814655E002E0022078
:10376000BDE8F09F002800DB1E73187802F0A2FC71
:103770000204587802F09EFC42EA0022987802F097
:1037800099FC197B024393F8240042EA014202F0BB
:1037900091FC196A42EA006598690D430543BAE74E
:1037A00021F4807181602068816821F480518160FA
:1037B000FEF7A2FA81460BE0FEF79EFAA0EB0900A5
:1037C000504505D92268C2F8248084F81DB018E05D
:1037D0002068C068C007EFD02068C56120684764D2
:1037E0002068816841F480711AE000BFFEF784FA16
:1037F000A0EB0900504507D92268C2F8248084F85C
:103800001DB003202677ABE72068C0688007EDD5A0
:1038100020680562206887642068816841F400712F
:10382000816022680120C2F824806077002026771A
:1038300096E700002DE9F0470446007F0B4601287B
:1038400021D04FF0010984F81C9002216177EAB180
:1038500059789878DA781B78090240EA024541EAFB
:10386000433005432268CA215320516221684862CF
:10387000204602F02BFC4FF000064FF0FF074FF000
:10388000040860BB1AE00220BDE8F0875878C10642
:1038900003D500F0EF000A305870D87802F00AFC27
:1038A0000204587802F006FC42EA0022987802F0FE
:1038B00001FC1978024342EA4135D3E721680F48F9
:1038C00005404D602068C16821F08001C16020681A
:1038D000806880060AD4204600F088F830B121685C
:1038E0004F6284F81D8001202677CDE721684F6262
:1038F00084F81D9000202677C6E700003FFFFF00F8
:103900002DE9F0470446007F0D46012828D04FF0EE
:10391000010A84F81CA00221617720684FF000069C
:1039200080684FEA4060F2B1002800DB2E736978AE
:103930002A78A8782B7B090240EA024741EA034033
:1039400007432268CA2153205162216848622046F9
:1039500002F0BCFB4FF0FF084FF00409A0BB16E0DB
:103960000220BDE8F087002800DB2E73287802F0E3
:10397000A1FB0204687802F09DFB42EA0022A878CD
:1039800002F098FB297B024342EA0147D9E721680C
:10399000154807400F602068816821F4802181600C
:1039A0002068D5E9041283681143194381602068B7
:1039B000C16821F08001C1602068806880060BD456
:1039C000204600F013F838B12268C2F8248084F849
:1039D0001D9001202677C4E72268C2F8248084F86D
:1039E0001DA000202677BCE77F7F7F0070B50446CE
:1039F0000068C16821F0A001C160FEF77DF94FF4B5
:103A00007A76054607E000BFFEF776F9401BB04224
:103A100001D9032070BD2068C0688006F4D500205D
:103A200070BD00002DE9F0474FF000060400354658
:103A300004D094F87D00B14618B107E00120BDE83C
:103A4000F087204684F87C9000F0E0F8022084F8AB
:103A50007D00204602F058FBE06838B1012802D012
:103A6000022803D101E0102600E02026A16861B100
:103A7000012906D002294FF4006005D0032904D1A2
:103A80000EE04FF4806500E005465C495B4A206823
:103A90002031904201D0884205D15848001F03E0F0
:103AA00046F00106F0E756480660E06948B323682F
:103AB0000020934201D08B4203D14FF40020FEF747
:103AC0009DFF4F4A2168121D914203D04C4A243277
:103AD000914203D14FF48010FEF790FFE16900EBB3
:103AE00080000A2240004902B0FBF1F0B0FBF2F383
:103AF000B0FBF2F1216202FB1300082801D9491C36
:103B0000216260684FF40078E8B3022871D0E06B5E
:103B1000012801D04FF000082068DFF8E8C06FF0FE
:103B2000FF01394E4EF20F0203684FF2200703EAFD
:103B30000C030360236B60681843D4E90D3C43EA2F
:103B40000C031843636A40EA08002843D4E904C51B
:103B50001843236840EA0C002843258CD3F800C0A2
:103B600040EA0555484645EA0C051D6023685D6836
:103B70004FF0010C95435D60D4F80080D8F8042024
:103B8000A3691A4300E034E0D4E90A352B431A4311
:103B9000C8F804202268936833409360A36C226DB8
:103BA000256C1A43E36C6D1E2B43656C1A43236826
:103BB00001EB05252A439D682A439A6054F8542B4B
:103BC000D3683B40D36094E86400A78954F8543D1F
:103BD0002A4301EB062141EA0741DD680A432A43F3
:103BE000DA60C4F8800084F87DC084F87C0000208E
:103BF00025E7E06B01288DD08EE7000004580140D6
:103C0000005C014010C005FF0080F8FF2DE9F04383
:103C100020490746006800261F4C87B01F4D884288
:103C20004FF002084FF00A0915D1A86838B9216889
:103C300041F400012160216801F400010591401C5C
:103C4000A860F0230093CDE9018615486946CDE9C7
:103C50000369FDF75BFF0F4938682031884216D1B0
:103C6000A86838B9216841F400012160216801F495
:103C700000010591401CA8604FF480630093CDE9DA
:103C8000018608486946CDE90369FDF73FFF07B0A3
:103C9000BDE8F083045C0140443802402400002069
:103CA000002002400018024070B504000D4603D009
:103CB00094F82C0010B107E0012070BD002084F8BA
:103CC0002D00204600F011F8022084F82C00206816
:103CD000211DFDF7D9F8D4E900022946FDF71AF9AC
:103CE000012084F82C00002070BDFDF7B5BE10B592
:103CF000044690F82C00022809D0022084F82C00F9
:103D00002068FDF7F0F8012084F82C00002010BD99
:103D100070B5044690F82C000D4602280DD0022004
:103D200084F82C002068FDF7E4F82868022805D004
:103D30005FF0010084F82C00002070BD0520F9E739
:103D40002DE9FE4304460F46416C032084F83400FD
:103D500003295BD0B7F5805F58D04FF400664FF071
:103D60000005B7424FF080681CD1009500210195F5
:103D7000206802F0F1FC800121D46946204602F05F
:103D800097FD98BB0198400332D5B4F850102068D5
:103D9000090402F0D9F948BB2068022122E0A06B97
:103DA000284327E01FB1A06B40F0006022E000959F
:103DB00000210195206802F0CFFC800101D5354635
:103DC000EDE76946204602F073FD78B90198C0031B
:103DD0000ED5B4F850102068090402F0B5F928B9DE
:103DE0002068002102F0FDF90028D8D00546D6E76A
:103DF0004546D4E7A063A06B012558B121680C4863
:103E0000886384F834500120BDE8FE83A06B40F045
:103E10008050EFE7211DD4E905060EC90097CDE9D2
:103E20000106206802F09BFC84F834500020EBE788
:103E3000FF05400070470000F0B5426E920F0A7017
:103E4000426EC2F383624A70426EC2F301628A70AC
:103E5000426E120CCA70B0F86420120A0A7190F80F
:103E600064204A71826E120DCA80826EC2F30342D0
:103E70000A72B0F86820C2F3C0324A72B0F8682003
:103E8000C2F380328A72B0F86820C2F34032CA723C
:103E9000B0F868200026C2F300320A734E73012284
:103EA000436C4FF4007463B1012B3AD0036850495E
:103EB0009963816B41F08051816380F83420012047
:103EC000F0BDB0F86830C56E9B051B0D43EA9573D5
:103ED0000B61C36EC3F3C2630B75C36EC3F302639E
:103EE0004B75C36EC3F342538B75C36EC3F38243EA
:103EF000CB75C36EC3F3C2330B760D696D1C45657C
:103F00000B7E03F007039B1C9D4045650B7A0466FE
:103F100003F00F0302FA03F35F0A7D43C0E916358D
:103F20000EE090F86850C36EAD06AD0A45EA134343
:103F30000B610B695B1C9B024365C0E91643046679
:103F4000B0F86C30C3F380334B76B0F86C30C3F309
:103F5000C6138B7690F86C3003F07F03CB76036F3B
:103F6000DB0F0B77036FC3F341734B77036FC3F31F
:103F700082638B77036FC3F38353CB77036FC3F3F2
:103F8000405381F8203081F82160036FC3F3004370
:103F900081F82230B0F87030C3F3C03381F8233099
:103FA000B0F87030C3F3803381F82430B0F870304B
:103FB000C3F3403381F82530B0F87030C3F30033D9
:103FC00081F82630B0F87030C3F3812381F82730B0
:103FD000B0F87030C3F3012381F8283090F87000F6
:103FE000C0F3460081F8290081F82A200020F0BDA6
:103FF000FF054000426C0A60826C4A60C26C8A60B5
:10400000026DCA60426D0A61826D4A61C26D8A6149
:10401000006EC8610020704770B5B0F850100025E0
:1040200004460068090402F0E3F918B1A16B0143EA
:10403000A16304E02068002102F08EFB0546C5F371
:10404000432070BD70B504000ED094F834000025F4
:1040500018B92046257700F03DF8032084F8340095
:10406000204600F00AF808B1012070BD0120A563C8
:10407000256384F83400002070BD3EB504467620E8
:10408000002100910B460A46CDE90110206802F09C
:1040900066FB08B101203EBD2068416821F48071B3
:1040A0004160206802F06CFB2068416841F4807137
:1040B0004160204602F0DEFC4FF0010520B92046A9
:1040C00002F061FC0028E6D084F83450A16B014373
:1040D000A163DFE7F0B587B0044614216846FCF71A
:1040E0003BF91A49206888422DD11948016841F4EA
:1040F00000610160006800F4006005901448143805
:10410000016841F004010160016801F004010591BA
:10411000016841F008010160006802240025694639
:1041200000F00800059003260C274FF4F8508DE8A6
:10413000F1000848FDF7EAFC042069468DE8F1002B
:104140000548FDF7E3FC07B0F0BD0000002C01407E
:104150004438024000080240000C02402DE9F047BC
:1041600086B01F460446154639B194F8340001283C
:1041700007D0022006B0BDE8F087A06B40F00060D9
:1041800008E0E26D0020EB19A063934204D9A06B14
:1041900040F00070A06371E00322824684F834206E
:1041A0002268D0622268D36B43F49573D363236C87
:1041B0004FEA4729324ADA63236C324ADA644FEA1B
:1041C0009903226C10650A462068266C00F1800174
:1041D0003046FDF7F1FBDFF8B080002820684FF093
:1041E00001060BD0C26B22F49572C2632068C0F83E
:1041F0003880A06B40F08040A06313E0C16A41F0BA
:104200000801C162606C012800D06D0220684FF483
:10421000007101F0CDFF40B12268C2F83880A16B77
:104220000143A16384F8346028E002A84FF0FF3115
:10423000059690220223CDE9001980E80C0420683D
:10424000694602F053F9012F06D9822020632068C5
:10425000294602F03FF805E08120206320682946C6
:1042600002F051F8002885D02368C3F83880A26B8B
:104270000243A26384F83460C4F830A0012079E7D7
:1042800061680008FD670008FF05400010B5FCF7F5
:104290006DFC10BD2DE9F04F5FEA010B1F4687B0A2
:1042A0000446164607D094F83400012807D00220AF
:1042B00007B0BDE8F08FA06B40F0006008E0E06D53
:1042C0000025F119A563814204D9A06B40F000706C
:1042D000A06360E0032084F834002068C562206891
:1042E000C16B41F01A01C163E16B3348C863E16BF4
:1042F0003248C864E06B0565606C012800D0560246
:1043000020684FF4007101F053FFDFF8B4904FF0D4
:10431000010840B12368C3F83890A16B0143A16341
:1043200084F8348037E0012F4FF0900A06D9A0209E
:1043300020632068314602F0A7F805E0C4F830A0F9
:104340003146206802F0B9F840B12368C3F83890CC
:10435000A26B0243A26384F834801BE02068C16A28
:1043600041F00801C16222687E02E06B5946B30841
:104370008032FDF721FB80B12068C36B23F01A0364
:10438000C3632068C0F83890A06B40F08040A06301
:1043900084F83480256301208AE74FF0FF326946B4
:1043A000CDE90026CDE902A5CDE90458206802F048
:1043B0009DF800207CE70000A3680008FD67000866
:1043C000FF0540002DE9F041040004D094F84500B9
:1043D000002518B107E00120BDE8F08184F84450C1
:1043E000204600F029F8022084F845002068016882
:1043F00021F003010160D4E90131A069D4E9032669
:104400001843636911432268084330431843D4E9D1
:104410000717D4E90936084311683843054F184394
:1044200039403043084310600121A56484F84510E9
:104430000020D1E70784F8FF10B586B004461421A8
:104440006846FBF789FF2068B0F1402F1FD1114863
:10445000016841F480310160006800F4803005900B
:104460000C481038016841F0080101600068082319
:10447000802100F00800059000200091022269468A
:10448000CDE90120CDE903030348FDF73FFB06B06A
:1044900010BD000040380240000C02402DE9F047FA
:1044A000040005D094F85D000025A56218B107E06E
:1044B0000120BDE8F087204684F85C5000F050F8F9
:1044C000022284F85D204FF4E0632068016821F047
:1044D00040010160E068984201D9002101E04FF4F9
:1044E0008051B0F5706F02D0984200D0A5624FF0B5
:1044F0000109266B2EB9984201D9226301E0C4F864
:104500003090D4E90468D4E90102278B46EA080612
:10451000A36A104307F4007830432668D4E907C241
:1045200040EA080040EA0C00CC4604271043184338
:104530003060D4F81880666B606AE26807EA184752
:10454000236830433A431043084358602068C169E8
:1045500021F40061C161256684F85DC00020A8E7F0
:1045600070B586B0044614216846FBF7F5FE1C4979
:104570002068884231D11B48016841F480410160C4
:10458000006800F48040059016481038016841F436
:1045900080710160016801F480710591016841F04A
:1045A00002010160006800240225009500F002006D
:1045B0006946CDE9015405260394CDE904600A4813
:1045C000FDF7A4FA4FF440400090CDE901540748AC
:1045D0006946CDE90346FDF799FA06B070BD0000C3
:1045E00000380040403802400020024000040240F1
:1045F00070477047704700002DE9F04390F83C2069
:10460000012A42D0012280F83C2051F80C4BDFF8FF
:1046100080804FF0000991E8680051E9022723F4F7
:104620004073B1F80CC03B43CF6923F4806313435C
:10463000026823F40063234323F4805343EA050311
:1046400023F4005343EA060323F4804343EA0703B9
:104650000C3923F47023424543EA0C4302D00D4C3D
:10466000A2420CD18D8C23F47006D1E9073446EABE
:10467000055121F08071194321F0007323435364E5
:1046800080F83C900020BDE8F0830220FBE70000AA
:104690000000014000040140F0B590F83C20012AE0
:1046A0003BD01F4E012480F83C40022280F83D2080
:1046B00002681C4D5368B242D2F808C001D0AA4229
:1046C00003D14F6823F470033B430F6823F070035A
:1046D0001F4357600268B24213D0B2F1804F10D02E
:1046E000114B9A420DD0114B9A420AD0104B9A426C
:1046F00007D0AA4205D00F4B9A4202D00E4B9A42E5
:1047000004D189682CF0800319439160002180F85E
:104710003D4080F83C100846F0BD0220F0BD00008E
:104720000000014000040140000400400008004077
:10473000000C0040004001400018004010B504008B
:1047400003D094F83D0010B107E0012010BD002017
:1047500084F83C00204600F00DF8022084F83D006B
:104760002068211D02F040FB012084F83D0000205C
:1047700010BD000008B502681A481B49824205D1E5
:10478000086840F001000860086811E01748B2F1BD
:10479000804F08D0164B9A420ED1016841F00201B9
:1047A000016000681BE0016841F0010101600068E0
:1047B00000F00100009008BD0E4B9A4207D101683D
:1047C00041F008010160006800F00800F2E70A48C3
:1047D0008242F0D1086840F002000860086800F0EA
:1047E0000200E7E700000140443802404038024040
:1047F00000040040000C0040000401400168094A28
:10480000CB6843F00103CB6001688868104006283C
:1048100006D0B0F5803F03D0086840F00100086082
:10482000002070470700010070B5044690F83C0076
:10483000012817D0324B012584F83C50022084F81F
:104840003D0022689068184020F47F40906008681E
:10485000502830D00DDC20284DD005DC98B310282E
:104860003BD148E0022070BD302844D0402834D1EC
:1048700039E0602828D0702806D0B0F5805F2CD0B1
:10488000B0F5005F29D10AE04A682068D1E9021337
:1048900002F010FB2068816841F0770109E04A6866
:1048A0002068D1E9021302F005FB2068816841F419
:1048B0008041816011E0CA684968206802F042FCCA
:1048C0002068502107E016E0CA684968206802F0B5
:1048D0004AFC2068602102F0F6FA002084F83D507E
:1048E00084F83C0070BDCA684968206802F02AFC60
:1048F00020684021EFE7226801461046EBE7000000
:1049000088FFFEFF704770B5044600680025016906
:10491000C943890715D4C168C943890711D4EA1E60
:10492000026101212177206880698007204602D03A
:10493000FFF7E8FF04E000F027F9204600F0E8F96F
:10494000257720680169C943490717D4C168C9435D
:10495000490713D402216FF0040202612177206815
:10496000806910F4407F204602D0FFF7CBFF04E0BF
:1049700000F00AF9204600F0CBF92577206801699C
:10498000C943090716D4C168C943090712D40421D1
:104990006FF00802026121772068C0698007204615
:1049A00002D0FFF7AFFF04E000F0EEF8204600F081
:1049B000AFF9257720680169C943C90617D4C168D2
:1049C000C943C90613D408216FF010020261217790
:1049D0002068C06910F4407F204602D0FFF792FFA4
:1049E00004E000F0D1F8204600F092F92577206825
:1049F0000169C943C90708D1C168C943C90704D1BE
:104A0000891E0161204600F085F920680169C943CB
:104A1000090609D4C168C943090605D46FF08001AD
:104A200001612046FFF7E5FD20680169C943C9051A
:104A300009D4C168C943090605D46FF480710161C6
:104A40002046FFF7D5FD20680169C943490609D40E
:104A5000C168C943490605D46FF040010161204691
:104A600000F062F920680169C94389060BD4C16866
:104A7000C943890607D46FF0200101612046BDE8D3
:104A80007040FFF7B7BD70BD70B586B00446142105
:104A90006846FBF761FC24680022334E022331494B
:104AA00001253248B44209D10C6844F001040C607D
:104AB000096801F001010591811520E0B4F1804FF2
:104AC00013D02B48844224D1086840F002000860CB
:104AD0000868694600F00200059010200090CDE9BA
:104AE00001322448CDE903230FE00C6844F00104AF
:104AF0000C60096801F0010105914FF4004100913B
:104B0000CDE90132CDE903256946FCF7FFFF06B088
:104B100070BD194884420FD1086840F48070086065
:104B200008686946009500F48070CDE9013203926F
:104B3000CDE904301148E8E711488442E7D108681C
:104B400040F080000860086800F080000590402078
:104B5000009009210B48CDE90132CDE903216946D6
:104B6000D3E700003038024000000140000002405E
:104B70000004004000040240000C004000200240FD
:104B800000180040001C0240704770B5044690F8C1
:104B90003C000D4601280ED0012684F83C6002201E
:104BA00084F83D000C2A45D007DC5AB1042A1BD0FA
:104BB000082A78D12CE0022070BD102A4ED0142A89
:104BC00071D15DE0206802F087F92068816941F0C9
:104BD000080181612068816921F0040181612068F8
:104BE0002A698169114311E0206802F0AFF9206859
:104BF000816941F4006181612068816921F48061EB
:104C0000816120682969826942EA012181614AE063
:104C1000206802F0D7F92068C16941F00801C1613C
:104C20002068C16921F00401C16120682A69C16955
:104C3000114311E0206802F001FA2068C16941F4D3
:104C40000061C1612068C16921F48061C16120688F
:104C50002969C26942EA0121C16124E0206802F0A9
:104C600019FA2068416D41F0080141652068416DE5
:104C700021F00401416520682A69416D114311E06A
:104C8000206802F033FA2068416D41F4006141650B
:104C90002068416D21F48061416520682969426D79
:104CA00042EA01214165002084F83D6084F83C001F
:104CB00070BD10B5040003D094F83D0010B107E0BA
:104CC000012010BD002084F83C00204600F00CF8C4
:104CD000022084F83D002068211D02F085F80120A3
:104CE00084F83D00002010BD08B5006806498842E0
:104CF00008D10648016841F040010160006800F0F9
:104D00004000009008BD00000018004040380240FC
:104D10007047000000680349884201D1FDF702BBDB
:104D20007047000000100040704710B5040002D02A
:104D3000606F10B107E0012010BD002084F8700002
:104D4000204600F025F8242060672068016821F0E3
:104D500001010160204602F09BFA0128ECD0606A54
:104D600010B1204602F011FA2068416821F4904108
:104D700041602068816821F02A0181602068016813
:104D800041F0010101602046BDE8104002F061BA27
:104D900070B586B0054614216846FBF7DDFA2B484E
:104DA00000242B4B2A681438284902259A422BD11B
:104DB0000A6842F010020A60096801F010010591CA
:104DC000016841F002010160016801F002010591F2
:104DD000016841F00101016000680726694600F0A2
:104DE0000100059080200090CDE901541948CDE9DB
:104DF0000346FCF78BFE28020090CDE901541648CB
:104E00006946CDE903461CE0144B9A421BD10A685F
:104E100042F020020A60096801F020010591016852
:104E200041F004010160006808220321029400F0AF
:104E300004000590C020CDE90312CDE90005084823
:104E40006946FCF763FE06B070BD000044380240BE
:104E50000010014000040240000002400014014024
:104E6000000802402DE9F05F074600680E464FF04B
:104E7000040900EB4114D4F8082501EB86004FF03B
:104E8000050B4FF0100807EBC005510708D5C4F813
:104E90000895D4F80C0540F00200C4F80C0546E073
:104EA000D4F80805C0050DD507204FF48071C4F86B
:104EB000081585F85D00D4F80C0540F00200C4F830
:104EC0000C0519E0D4F80805800603D52020C4F8A5
:104ED00008052CE0D4F808054FF0080A000710D5A3
:104EE000D4F80C3543F00203C4F80C3585F85DB0F6
:104EF000C4F80885C4F808A53146386803F0D3FB28
:104F000015E0D4F80805400511D5D4F80C0540F09B
:104F10000200C4F80C053868314603F0C4FB4FF4B6
:104F20008062C4F8088585F85DA0C4F80825D4F827
:104F3000080580050ED5D4F80C0540F00200C4F831
:104F40000C05386804F5A164314603F0ACFB4FF45E
:104F50000070A2E0D4F8080500210122C00743D068
:104F6000386930B1D4F81035A86CC3F31203C01AF5
:104F7000E86485F85D20A965C4F8082595F83F0028
:104F800030B1022804D0032811D0012818D023E022
:104F9000D4F80C0540F00200C4F80C05386804F59C
:104FA000A164314603F07FFBC4F8008014E0D4F81C
:104FB000000540F00050C4F8000585F85C2007E0CB
:104FC00095F8500085F85C2080F0010085F85000CD
:104FD00031463846FCF7FEFE95F8500080F001009F
:104FE00085F85000BDE8F09FD4F8080580073DD54E
:104FF000D4F80C05022320F00200C4F80C0595F843
:105000005D0001280AD005280BD006280CD00828FE
:105010000AD0032819D007281AD01EE085F85C2092
:105020001BE085F85CB018E0A86D401CA86503285B
:105030000BD9A96585F85C90D4F8000520F0804074
:1050400040F00040C4F8000507E085F85C30F3E765
:10505000A86D85F85C90401CA865C4F808353146F9
:1050600095F85C203846FCF7B5FEBBE7D4F8080598
:10507000000614D5D4F80C05062140F00200C4F84F
:105080000C05A86D04F5A164401CA86585F85D10A9
:105090003146386803F007FB80202060A2E7D4F88F
:1050A0000805C0069ED595F83F00032803D020B11F
:1050B000022802D011E0A96505E0A965386960B948
:1050C000032085F85D00D4F80C0540F00200C4F818
:1050D0000C053868314603F0E6FAC4F8088581E724
:1050E0002DE9F047026802EB4114D4F808254FF08F
:1050F0000403520709D5C4F80835D4F80C0540F06C
:105100000200C4F80C05BDE8F087D4F8086501EB8F
:10511000810500224FF0020C00EBC505B60615D53F
:105120002023C4F8083595F83D30012BEBD185F8E4
:105130003D2085F85CC0D4F80C2542F00202C4F88A
:105140000C250068BDE8F04703F0ADBAD4F8087547
:1051500001267F0611D585F85D3085F83D60AA658A
:10516000D4F80C2542F00202C4F80C25006804F5BE
:10517000A16403F098FA402010E0D4F80875BF0548
:105180000ED5D4F80C2542F00202C4F80C250068B4
:1051900004F5A16403F087FA4FF400702060B2E7D1
:1051A000D4F80875FF070FD0AA65D4F80C2542F093
:1051B0000202C4F80C25006804F5A16403F073FA38
:1051C000266085F85D609EE7D4F8088508274FF0D3
:1051D00005095FEA08780DD5C4F80875D4F80C25E0
:1051E00042F00202C4F80C25006803F05CFA85F86E
:1051F0005D9088E7D4F808854FF0100A5FEAC86828
:1052000018D595F83D300327AA6585F85D7023B958
:1052100095F83C200AB985F83D60D4F80C2542F099
:105220000202C4F80C25006804F5A16403F03BFAFF
:105230005046B3E7D4F808855FEA08680FD5D4F87C
:105240000C2542F00202C4F80C25006804F5A164A4
:1052500003F029FA062185F85D1080209EE7D4F836
:1052600008855FEA485812D5D4F80C2542F00202AE
:10527000C4F80C25006804F5A16403F014FA4FF497
:105280008061C4F800A0216085F85D703BE7D4F828
:105290000875BF0797D5D4F80C7527F00207C4F836
:1052A0000C7595F85D70012F0AD0032F17D0042FCD
:1052B00015D0052F16D0062F17D0082F15D027E0B0
:1052C00095F83F2085F85C60022A01D0032A1FD19F
:1052D00095F8512082F0010285F8512018E085F8F8
:1052E0005CC015E085F85C9012E0AE6D761CAE6592
:1052F000032E03D9AA6585F85C3001E085F85CC00F
:10530000D4F8002522F0804242F00042C4F8002583
:10531000C4F808C595F85C20FCF75CFDF3E67CB5A5
:1053200004680546D4F840040190D4F8400420F005
:105330002E0000900198800709D50198C00702D07F
:105340002846FCF7DFFC009840F00200009001982E
:10535000000724D5009840F008000090019840070D
:105360001AD5A869022803D0E86801280CD00FE0FC
:105370000198C0F341400228286803D0012103F0BE
:105380007FFB05E00221FAE74EF66020C4F8040432
:105390002846FCF789FE02E02846FCF781FE0198CA
:1053A0008006009802D540F020000090C4F8400428
:1053B0007CBD00002DE9F04102460068016A074605
:1053C00001F00F06C1F34343022BC1F30A1426D1A7
:1053D000002C24D006EB860102EBC105696C002984
:1053E0001DD0224603F06CFB6A6C07EB46100D499A
:1053F00022446A64EA6C2244EA64D0F810250A4226
:105400000DD0D0F8001521F0804141F00041C0F8E6
:10541000001595F8500080F0010085F85000BDE8B7
:10542000F08100000000F81FFEE700002DE9F843BE
:1054300007461B480E461546DDE908184FF4403272
:105440001C464260174A126802EB820303EBC20259
:10545000A0F1A80303EB8202926C022A00D0002282
:105460008260114A0260C1600D48FCF713F9002800
:1054700014D10B483946FCF72FF800280ED1084804
:105480002B46324641460094FCF7D7F9002805D157
:10549000BDE8F84302480A21FCF748B9BDE8F883A3
:1054A000F80100200000002000B002400148FCF795
:1054B000B4BF0000040500202DE9FE4F81460068BE
:1054C000882493468D888C2204EBCB178A46C368C8
:1054D0009421BE46C459C3F30B432B4404F47044D7
:1054E0001F04019702EBCB1240F80E4001EBCB13E7
:1054F000DAF800709C214FF0AC0C01EBCB1440F2B9
:10550000077102910CEBCB11D9F800C0982500204F
:10551000CDF800C0A02605EBCB15DCF80CC006EBDF
:10552000CB16CCF30B4C0CF1010C07EB0C08DDF89F
:1055300000C0019F48EA07084CF80E80D9F80070B7
:10554000BAF80CC0B846FF68C7F30A0767444FEAC9
:10555000074E58F8027007F4704C48F802C0D9F8AA
:1055600000C0DAF80870DCF80C80C8F30A0808F10B
:105570000108B84448EA0E084CF80280D9F8002027
:10558000D75827F00707D750D9F80070DAF810205D
:10559000FA509AF831209AF818304FEA022C9AF80B
:1055A0003220120442EA0362D9F800301F59185120
:1055B0009AF8303043EA0C031343D9F80020135112
:1055C000D9F80020535923F0FF035351D9F8002094
:1055D000DAF814305351D9F800209359029CA343B0
:1055E0009351D9F80030DAE9072422439A51D9F8C7
:1055F000002053585050D9F80020DAF824005050B9
:10560000DAF81000C8B301283AD004283AD00228AA
:1056100038D0032836D0072834D00120D9F80030FC
:10562000B02505EBCB11B42284245D5802EBCB12DC
:1056300005F0E0255D50DAE9003504EBCB14EB1AF8
:10564000BAF8285043434543D9F80000DB1C43EA2D
:1056500005434350D9F8000081586FF30A01815087
:10566000D9F80000DAF82C108150D9F8000001595F
:1056700041F001010151BDE8FE8FFFE70420CDE7B5
:105680000320CBE70220C9E77FB513480024114B64
:105690004FF4803200940125019402940394036036
:1056A000C0E90124046184610C4980F82040C0E90C
:1056B0000A14C561C46080F830404561FBF752FDB3
:1056C00004206946CDE9000503480294FBF776FC07
:1056D0007FBD000000220140700300200100000F88
:1056E00009480021074AC0E900218160C1600161C9
:1056F00041618161016241628162C1620163FBF7C4
:1057000017BE000000000550DC03002020B100227D
:1057100002482021FCF7EBBA0122F9E7000C024015
:105720000449054810B5FBF78BFB0249491E087078
:1057300010BD00001D000020BCBE0008F0B587B001
:105740001C216846FAF708FE13480021114E042375
:1057500000F1080E102506604FF4C0774160402626
:105760008EE82A004FF4006C0222C0E90567072486
:10577000D502C0E9071CC0E90951CDE90024032680
:105780006946CDE90462CDE902340692FEF78CFA4F
:1057900007B0F0BD400100A0D40A00202DE9F04F71
:1057A00087B014216846FAF7D7FD9748016841F0A1
:1057B00010010160016801F010010591016841F0DC
:1057C00040010160016801F040010591016841F06C
:1057D00002010160016801F002010591016841F0D8
:1057E00008010160016801F008010591016841F0BC
:1057F00004010160016801F004010591016841F0B4
:1058000001010160016801F001010591016841F4A5
:1058100000710160016801F400710591016841F4B3
:1058200080710160016801F480710591016841F4A3
:1058300080610160016801F480610591016841F0B7
:1058400020010160016801F020010591016841F02B
:105850008001016000680122202100F08000059095
:105860006A48FCF744FA6A4800220C21FCF73FFA28
:10587000684801220821FCF73AFA0122644814031F
:105880002146FCF734FA4FF40058634800224146A1
:10589000FCF72DFA61480022C821FCF728FA002104
:1058A0004FF00809CDF800905D48CDE90111694637
:1058B000FCF72CF9022543F6234002AA6946032689
:1058C000CDE9000500200A2782E8C1005548FCF711
:1058D0001DF9002002906946CDE900405248FCF7CE
:1058E00015F9DFF848A140206946CDE9000A0020FB
:1058F00002904648FCF70AF9012469462020CDE9C8
:1059000000040020029003904048FCF7FFF841F2A9
:105910000C006946CDE900040020029003903C4849
:10592000FCF7F4F80020DFF808B169460290CDE9F1
:1059300000805846FCF7EAF80020CDF80090694650
:10594000CDE9014003903348FCF7E0F800204FF028
:10595000100902906946CDE900902C48FCF7D6F872
:1059600048F20400009000200190029069462A4805
:10597000FCF7CCF80020CDF800806946CDE9014065
:1059800003902548FCF7C2F80020CDF80080694656
:10599000CDE901A01E48FCF7B9F802A8002180E873
:1059A000C2001D486946CDE90095FCF7AFF800211B
:1059B000C820CDE90004CDE9021118486946FCF77A
:1059C000A5F802AA0021052082E8C200CDE9000561
:1059D00069465846FCF79AF8002104200A468DE8EB
:1059E00007000E486946FCF791F802AA002128201A
:1059F00082E8C200CDE900050E486946FCF786F84A
:105A000007B0BDE8F08F000030380240000C0240C3
:105A10000020024000280240001C02400018024002
:105A20000010024000040240002402400000121056
:105A300000080240000002400E48002110B50C4C46
:105A400001230D4A0460C0E90121C0E9033141612D
:105A50008161C1610162FCF7B1FB06480021FCF7DE
:105A600056FBBDE8104003480021FCF77CBB00005A
:105A7000005400406C040020FFEAC0000E480021E2
:105A800010B50C4C01230D4A0460C0E90121C0E9A6
:105A9000033141618161C1610162FCF78FFB0648FE
:105AA0000021FCF734FBBDE8104003480021FCF75F
:105AB0005ABB0000005C0040B8040020FFEAC000B0
:105AC000F0B58DB034216846FAF746FC2248002430
:105AD000204D2821092240F21526352340F21B17BC
